{
  "address": "0x01deaCA250E98F6c9A567aA95E69Ef5670613707",
  "abi": [
    {
      "inputs": [
        {
          "internalType": "address",
          "name": "from",
          "type": "address"
        },
        {
          "internalType": "address",
          "name": "to",
          "type": "address"
        },
        {
          "internalType": "uint256",
          "name": "amount",
          "type": "uint256"
        },
        {
          "internalType": "address",
          "name": "token",
          "type": "address"
        },
        {
          "internalType": "bytes32",
          "name": "organizationId",
          "type": "bytes32"
        }
      ],
      "name": "sendPayment",
      "outputs": [],
      "stateMutability": "payable",
      "type": "function"
    },
    {
      "inputs": [
        {
          "internalType": "bytes32",
          "name": "organizationId",
          "type": "bytes32"
        },
        {
          "internalType": "address",
          "name": "paymentToken",
          "type": "address"
        },
        {
          "internalType": "uint256",
          "name": "rewardsMultiplier",
          "type": "uint256"
        },
        {
          "internalType": "address",
          "name": "rewardsToken",
          "type": "address"
        },
        {
          "internalType": "address",
          "name": "treasuryAddress",
          "type": "address"
        }
      ],
      "name": "setOrganizationRewards",
      "outputs": [],
      "stateMutability": "nonpayable",
      "type": "function"
    }
  ],
  "transactionHash": "0x2fff549fcdea64c2589c315457faa470f94b50694716cba9562f8bed3f1afa74",
  "args": [],
  "numDeployments": 1,
  "solcInputHash": "0441c10685fbe8a881293046941ffb1a",
  "bytecode": "0x6080604052348015600f57600080fd5b506108478061001f6000396000f3fe6080604052600436106100295760003560e01c8063f024accb1461002e578063fd43502314610057575b600080fd5b34801561003a57600080fd5b5061005560048036038101906100509190610546565b610073565b005b610071600480360381019061006c91906105c1565b610166565b005b60008060008781526020019081526020016000209050858160000181905550838160010160008773ffffffffffffffffffffffffffffffffffffffff1673ffffffffffffffffffffffffffffffffffffffff16815260200190815260200160002081905550828160020160006101000a81548173ffffffffffffffffffffffffffffffffffffffff021916908373ffffffffffffffffffffffffffffffffffffffff160217905550818160030160006101000a81548173ffffffffffffffffffffffffffffffffffffffff021916908373ffffffffffffffffffffffffffffffffffffffff160217905550505050505050565b8173ffffffffffffffffffffffffffffffffffffffff166323b872dd8686866040518463ffffffff1660e01b81526004016101a39392919061065a565b6020604051808303816000875af11580156101c2573d6000803e3d6000fd5b505050506040513d601f19601f820116820180604052508101906101e691906106c9565b50600080600083815260200190815260200160002090506102478160010160008573ffffffffffffffffffffffffffffffffffffffff1673ffffffffffffffffffffffffffffffffffffffff1681526020019081526020016000205461038e565b610258670de0b6b3a764000061038e565b6000670de0b6b3a76400008260010160008673ffffffffffffffffffffffffffffffffffffffff1673ffffffffffffffffffffffffffffffffffffffff16815260200190815260200160002054866102b09190610725565b6102ba9190610796565b90508160020160009054906101000a900473ffffffffffffffffffffffffffffffffffffffff1673ffffffffffffffffffffffffffffffffffffffff166323b872dd8360030160009054906101000a900473ffffffffffffffffffffffffffffffffffffffff1689846040518463ffffffff1660e01b81526004016103419392919061065a565b6020604051808303816000875af1158015610360573d6000803e3d6000fd5b505050506040513d601f19601f8201168201806040525081019061038491906106c9565b5050505050505050565b610424816040516024016103a291906107c7565b6040516020818303038152906040527ff82c50f1000000000000000000000000000000000000000000000000000000007bffffffffffffffffffffffffffffffffffffffffffffffffffffffff19166020820180517bffffffffffffffffffffffffffffffffffffffffffffffffffffffff8381831617835250505050610427565b50565b61043e81610436610441610462565b63ffffffff16565b50565b60006a636f6e736f6c652e6c6f679050600080835160208501845afa505050565b61046d819050919050565b6104756107e2565b565b600080fd5b6000819050919050565b61048f8161047c565b811461049a57600080fd5b50565b6000813590506104ac81610486565b92915050565b600073ffffffffffffffffffffffffffffffffffffffff82169050919050565b60006104dd826104b2565b9050919050565b6104ed816104d2565b81146104f857600080fd5b50565b60008135905061050a816104e4565b92915050565b6000819050919050565b61052381610510565b811461052e57600080fd5b50565b6000813590506105408161051a565b92915050565b600080600080600060a0868803121561056257610561610477565b5b60006105708882890161049d565b9550506020610581888289016104fb565b945050604061059288828901610531565b93505060606105a3888289016104fb565b92505060806105b4888289016104fb565b9150509295509295909350565b600080600080600060a086880312156105dd576105dc610477565b5b60006105eb888289016104fb565b95505060206105fc888289016104fb565b945050604061060d88828901610531565b935050606061061e888289016104fb565b925050608061062f8882890161049d565b9150509295509295909350565b610645816104d2565b82525050565b61065481610510565b82525050565b600060608201905061066f600083018661063c565b61067c602083018561063c565b610689604083018461064b565b949350505050565b60008115159050919050565b6106a681610691565b81146106b157600080fd5b50565b6000815190506106c38161069d565b92915050565b6000602082840312156106df576106de610477565b5b60006106ed848285016106b4565b91505092915050565b7f4e487b7100000000000000000000000000000000000000000000000000000000600052601160045260246000fd5b600061073082610510565b915061073b83610510565b925082820261074981610510565b915082820484148315176107605761075f6106f6565b5b5092915050565b7f4e487b7100000000000000000000000000000000000000000000000000000000600052601260045260246000fd5b60006107a182610510565b91506107ac83610510565b9250826107bc576107bb610767565b5b828204905092915050565b60006020820190506107dc600083018461064b565b92915050565b7f4e487b7100000000000000000000000000000000000000000000000000000000600052605160045260246000fdfea26469706673582212201b3720612fc14675990f4cdf8aa3e66d0769d649bd83b3393148375df8eec5cc64736f6c634300081c0033",
  "devdoc": {
    "kind": "dev",
    "methods": {},
    "version": 1
  },
  "userdoc": {
    "kind": "user",
    "methods": {},
    "version": 1
  },
  "storageLayout": {
    "storage": [
      {
        "astId": 929,
        "contract": "contracts/PayGuppyTransactor.sol:PayGuppyTransactor",
        "label": "orgRewards",
        "offset": 0,
        "slot": "0",
        "type": "t_mapping(t_bytes32,t_struct(Organization)924_storage)"
      }
    ],
    "types": {
      "t_address": {
        "encoding": "inplace",
        "label": "address",
        "numberOfBytes": "20"
      },
      "t_bytes32": {
        "encoding": "inplace",
        "label": "bytes32",
        "numberOfBytes": "32"
      },
      "t_mapping(t_address,t_uint256)": {
        "encoding": "mapping",
        "key": "t_address",
        "label": "mapping(address => uint256)",
        "numberOfBytes": "32",
        "value": "t_uint256"
      },
      "t_mapping(t_bytes32,t_struct(Organization)924_storage)": {
        "encoding": "mapping",
        "key": "t_bytes32",
        "label": "mapping(bytes32 => struct Organization)",
        "numberOfBytes": "32",
        "value": "t_struct(Organization)924_storage"
      },
      "t_struct(Organization)924_storage": {
        "encoding": "inplace",
        "label": "struct Organization",
        "members": [
          {
            "astId": 915,
            "contract": "contracts/PayGuppyTransactor.sol:PayGuppyTransactor",
            "label": "id",
            "offset": 0,
            "slot": "0",
            "type": "t_bytes32"
          },
          {
            "astId": 919,
            "contract": "contracts/PayGuppyTransactor.sol:PayGuppyTransactor",
            "label": "rewardMultiplier",
            "offset": 0,
            "slot": "1",
            "type": "t_mapping(t_address,t_uint256)"
          },
          {
            "astId": 921,
            "contract": "contracts/PayGuppyTransactor.sol:PayGuppyTransactor",
            "label": "rewardsToken",
            "offset": 0,
            "slot": "2",
            "type": "t_address"
          },
          {
            "astId": 923,
            "contract": "contracts/PayGuppyTransactor.sol:PayGuppyTransactor",
            "label": "treasuryAddress",
            "offset": 0,
            "slot": "3",
            "type": "t_address"
          }
        ],
        "numberOfBytes": "128"
      },
      "t_uint256": {
        "encoding": "inplace",
        "label": "uint256",
        "numberOfBytes": "32"
      }
    }
  }
}